:020000040800F2
:100000007806002065010008010F0008890E00082D
:1000100000000000000000000000000000000000E0
:10002000000000000000000000000000050F0008B4
:100030000000000000000000030F0008090F000886
:1000400077010008770100087701000877010008B0
:1000500077010008770100087701000877010008A0
:100060007701000877010008770100087701000890
:100070007701000877010008770100087701000880
:1000800077010008770100080000000077010008F0
:100090007701000877010008770100087701000860
:1000A0007701000877010008770100087701000850
:1000B00077010008000000007701000800F002F856
:1000C00000F040F80CA030C8083824182D18A246BB
:1000D000671EAB4654465D46AC4201D100F032F893
:1000E0007E460F3E0FCCB6460126334200D0FB1AA7
:1000F000A246AB46334318472810000048100000C2
:10010000103A02D378C878C1FAD8520701D330C860
:1001100030C101D504680C60704700000023002442
:1001200000250026103A01D378C1FBD8520700D32E
:1001300030C100D50B6070471FB500F0FFF81FBD40
:1001400010B510BD00F00CF91146FFF7F5FF00F0F7
:10015000D3FF00F024F903B4FFF7F2FF03BC00F073
:100160002BF900000748804707480047FEE7FEE7F5
:10017000FEE7FEE7FEE7FEE704480549054A064BB1
:10018000704700001D0F0008BD0000087800002027
:1001900078060020780200207802002001E004C0E8
:1001A000091F0429FBD28B0701D50280801CC907D7
:1001B00000D00270704700290BD0C30702D0027034
:1001C000401C491E022904D3830702D50280801CEB
:1001D000891EE3E70022EEE70022DFE700220309A1
:1001E0008B422CD3030A8B4211D300239C464EE052
:1001F00003460B433CD4002243088B4231D303090E
:100200008B421CD3030A8B4201D394463FE0C309BF
:100210008B4201D3CB01C01A524183098B4201D3D7
:100220008B01C01A524143098B4201D34B01C01AC2
:10023000524103098B4201D30B01C01A5241C3083A
:100240008B4201D3CB00C01A524183088B4201D3A9
:100250008B00C01A524143088B4201D34B00C01A95
:100260005241411A00D201465241104670475DE0AA
:10027000CA0F00D04942031000D34042534000222D
:100280009C4603098B422DD3030A8B4212D3FC22D6
:10029000890112BA030A8B420CD3890192118B4255
:1002A00008D3890192118B4204D389013AD092116B
:1002B00000E08909C3098B4201D3CB01C01A524126
:1002C00083098B4201D38B01C01A524143098B42EF
:1002D00001D34B01C01A524103098B4201D30B01D8
:1002E000C01A5241C3088B4201D3CB00C01A5241FD
:1002F00083088B4201D38B00C01A5241D9D24308E4
:100300008B4201D34B00C01A5241411A00D2014620
:10031000634652415B10104601D34042002B00D58A
:100320004942704763465B1000D3404201B500204C
:10033000C046C04602BD70477047704770B5064C56
:100340007C44064D7D4403E0206800198047241D4D
:10035000AC42F9D170BD0000FC0D0000FC0D0000A6
:10036000754600F025F8AE46050069465346C008BC
:10037000C000854618B020B5FFF7FEFE60BC002720
:100380004908B6460026C0C5C0C5C0C5C0C5C0C561
:10039000C0C5C0C5C0C5403D49008D46704710B5B9
:1003A0000446C046C0462046FFF7D5FE10BD0000FB
:1003B000004870471400002001491820ABBEFEE73A
:1003C000260002007047704778B5034600220024DB
:1003D0000020DCE0012696400D6835402C46002CBC
:1003E0007ED04D68022D02D04D68122D15D1D50852
:1003F000AE001D462035A8595507EE0E0F25B54015
:100400000646AE4330465607F60E0D69B540284302
:10041000D508AD001E4620367051186856000325D9
:10042000B5400646AE4330460D79AD07AD0F5600D8
:10043000B540284318604D68012D08D04D68022D45
:1004400005D04D68112D02D04D68122D18D1986835
:1004500056000325B5400646AE4330465600CD68EB
:10046000B540284398605868012595400646AE433C
:10047000304610264D6835402D0995402843586078
:10048000D86856000325B5400646AE4330465600B0
:100490008D68B5402843D860012636074D68354041
:1004A000B54273D100BF3D4DAD69012635433B4E8A
:1004B000B5613546AD69ED07ED0F009500BF384DCC
:1004C0009608B600A85995072E0F0F25B540064689
:1004D000AE4330460925ED06AB4202D1002510E0BF
:1004E00054E0304DAB4201D101250AE02E4DAB4224
:1004F00001D1022505E02D4DAB4201D1032500E0DD
:1005000005259607360FB5402843254D9608B600B9
:10051000A851274D28680546A543284601263604DC
:100520004D683540B54202D1054625432846204D49
:10053000286068680546A5432846012676044D686C
:100540003540B54202D1054625432846184D68601E
:10055000A8680546A5432846012636054D6835405E
:10056000B54202D1054625432846114DA860E868EA
:100570000546A5432846012676054D683540B54217
:1005800002D1054625432846094DE860521C0D68F6
:10059000D540002D00D01DE778BD000000100240BE
:1005A000080001400004004800080048000C004812
:1005B0000004014042694A4042617047002A01D06C
:1005C000816100E081627047014800687047000067
:1005D0000000002002480068401C01490860704784
:1005E0000000002010B506480068102108430449A7
:1005F0000860002000F006F800F018F8002010BD98
:100600000020024070B5044600F002F906467D2144
:10061000C900FFF7E3FD054600F01AFC0022214661
:10062000501E00F021F8002070BD000008B500BF8A
:100630000C488069012108430A498861084680699D
:10064000C007C00F009000BF00BF0846C069090482
:1006500008430449C8610846C0690904084000907D
:1006600000BF08BD0010024070B504460D46164696
:100670002946204600F08CFC70BD000070B5044691
:100680000D4600265D480068C007C00FA8420ED284
:100690005A48006840084000284358490860084606
:1006A0000068C007C00FA84201D0012070BD022120
:1006B00020680840022807D151484068F02188434B
:1006C000A16808434E4948602078C007C00F002841
:1006D0005FD06068012808D14948006801214904B9
:1006E0000840002815D10120E0E76068022808D101
:1006F00043480068012149060840002809D101202B
:10070000D4E73F48006802210840002801D10120B9
:10071000CCE73B484068800880006168084338495E
:100720004860FFF751FF0646606801280FD107E0D7
:10073000FFF74AFF801B3349884201D90320B5E700
:100740002F4840680C2108400428F1D121E060685E
:1007500002280FD107E0FFF737FF801B29498842A5
:1007600001D90320A2E7264840680C210840082848
:10077000F1D10EE007E0FFF727FF801B21498842F7
:1007800001D9032092E71E4840680C210840002848
:10079000F1D11A480068C007C00FA8420ED9174807
:1007A0000068400840002843144908600846006873
:1007B000C007C00FA84201D0012077E704212068BC
:1007C0000840042808D10E484068072109028843E0
:1007D000E16808430A49486000F020F80849496880
:1007E000F02211400909084A515CC84007490860D5
:1007F0000020FFF707FF002058E70000002002401C
:1008000000100240881300000811000804000020B6
:10081000014800687047000004000020F0B589B06E
:1008200024A001460EC9C06805AC0EC4089025A0DE
:1008300001460EC9C06801AC0EC404900024002714
:100840000025002600200090224844680C2020400B
:10085000002826D0042802D0082823D102E01E4810
:10086000009022E00F2080042040800C05A90E5C3F
:100870001848C06A0007000F01A90F5C012000049E
:10088000204001210904884206D139461248FFF769
:10089000A5FC7043054602E01048354645430095E7
:1008A00003E000BF0C48009000BF00BF009809B0F3
:1008B000F0BD000002030405060708090A0B0C0D31
:1008C0000E0F10100102030405060708090A0B0C9D
:1008D0000D0E0F100010024000127A0000093D00BA
:1008E000F8B5044600252078C007C00F002871D055
:1008F000F94840680C21084004280BD0F6484068AD
:100900000840082812D1F448406801210904084031
:1009100088420BD1F04800680121490408400028B2
:100920006BD06068002868D10120F8BD00BF606806
:10093000012807D1E8480068012109040843E64975
:10094000086031E0606800280ED1E34800680121AA
:1009500009048843E04908600846006801218904C9
:100960008843DD4908601FE0606805280ED1DA4839
:100970000068012189040843D749086008460068D7
:10098000012109040843D44908600DE0D2480068F9
:10099000012109048843D049086008460068012104
:1009A00089048843CC49086000BF6068002812D0E1
:1009B000FFF70AFE054606E0FFF706FE401B642827
:1009C00001D90320B1E7C448006801214904084067
:1009D0000028F1D011E0FFF7F7FD054606E0FFF72C
:1009E000F3FD401B642801D903209EE7BA48006844
:1009F0000121490408400028F1D102212068084063
:100A0000022861D1B44840680C21084000280BD06E
:100A1000B1484068084008281BD1AF484068012110
:100A200009040840002814D1AB480068022108409E
:100A3000002804D0E068012801D0012075E7A6480D
:100A40000068F82188432169C9000843A249086069
:100A50003AE0E068002820D09F4800680121084360
:100A60009D490860FFF7B0FD054606E0FFF7ACFDC5
:100A7000401B022801D9032057E79748006802214C
:100A800008400028F2D094480068F8218843216982
:100A9000C90008439049086016E08F480068400884
:100AA00040008D490860FFF78FFD054606E0FFF71F
:100AB0008BFD401B022801D9032036E786480068D9
:100AC000022108400028F2D10821206808400828A7
:100AD00031D1E069002817D07F48406A01210843DE
:100AE0007D494862FFF770FD054606E0FFF76CFDA3
:100AF000401B022801D9032017E77748406A0221EA
:100B000008400028F2D016E07348406A40084000D0
:100B100071494862FFF758FD054606E0FFF754FDAE
:100B2000401B022801D90320FFE66B48406A0221DE
:100B300008400028F2D1042120680840042870D120
:100B400000266548C0698906084000280CD100BF0E
:100B50006148C06908436049C8610846C069090422
:100B60000840009000BF01265C480068FF21013169
:100B70000840002816D159480068084357490860C2
:100B8000FFF722FD054606E0FFF71EFD401B642827
:100B900001D90320C9E651480068FF21013108400E
:100BA0000028F1D000BFA068012806D14A48006A99
:100BB00001210843484908622BE0A06800280CD1B5
:100BC0004548006A40084000434908620846006AF8
:100BD00004218843404908621BE0A06805280CD125
:100BE0003D48006A042108433B4908620846006A00
:100BF00001210843384908620BE03748006A400881
:100C00004000354908620846006A04218843324999
:100C1000086200BFA068002813D0FFF7D5FC054686
:100C200008E029E0FFF7D0FC401B2D49884201D99C
:100C300003207AE62848006A022108400028F1D003
:100C400011E0FFF7C1FC054607E0FFF7BDFC401BC4
:100C50002349884201D9032067E61F48006A022120
:100C600008400028F1D1012E05D11B48C069310789
:100C700088431949C86100BF102120680840102826
:100C800060D1606901282DD11348406B04210843CD
:100C9000114948630846406B012108430E494863E7
:100CA000FFF792FC054606E0FFF78EFC401B02288A
:100CB00001D9032039E60848406B0221084000288A
:100CC000F2D00548406BF8218843A169C900084368
:100CD0000149486336E00000001002400070004007
:100CE000881300006069401D00280FD14E48406BFA
:100CF000042188434C4948630846406BF8218843E7
:100D0000A169C9000843484948631BE04648406B55
:100D100004210843444948630846406B40084000AA
:100D20004863FFF751FC054606E0FFF74DFC401B0A
:100D3000022801D90320F8E53B48406B0221084016
:100D40000028F2D1206A00286CD0374840680C2176
:100D50000840082864D0206A022847D13248006839
:100D600001210906884330490860FFF72DFC05463C
:100D700006E0FFF729FC401B022801D90320D4E537
:100D8000294800680121490608400028F1D100BF28
:100D90002548C06A00090001E16A08432249C86287
:100DA000616AA06A0843204949683D2212049143C0
:100DB00008431D49486000BF084600680121090634
:100DC000084319490860FFF7FFFB054606E0FFF7F7
:100DD000FBFB401B022801D90320A6E5124800684E
:100DE0000121490608400028F1D01BE00E480068A8
:100DF0000121090688430C490860FFF7E5FB054619
:100E000006E0FFF7E1FB401B022801D903208CE537
:100E1000054800680121490608400028F1D101E099
:100E2000012082E5002080E500100240042806D160
:100E30000649096904221143044A116105E0034986
:100E4000096904229143014A1161704700E000E002
:100E500070B504462546681E0949884201D901201B
:100E60000CE0681E074948610321081F00F090F854
:100E700000200449886107200861002070BD00003F
:100E8000FFFFFF0000E000E000BFFEE700B587B015
:100E9000142102A8FFF7A0F900BF174840690121FB
:100EA000490408431449486108464069012149043E
:100EB0000840019000BF00BF0F4840694900084347
:100EC0000D494861084640690121890408400190A4
:100ED00000BF002208210948FFF770FB082002909C
:100EE0000120039000200490059002A90348FFF719
:100EF0006BFA07B000BD000000100240000400487B
:100F0000704770477047000010B5FFF763FB024859
:100F100000F0C8F810BD0000080000201948006863
:100F200001210843174908600846406816490840EF
:100F3000144948600846006814490840114908608F
:100F4000084600680121890488430E490860084664
:100F500040683F21090488430A4948600846C06A3E
:100F600000090001C8620846006BFF215431884324
:100F7000044908630846406B40084000486300206D
:100F800088607047001002400CB8FFF8FFFFF6FEC3
:100F900010B5002819DA1A4A03071B0F083B9B08F3
:100FA0009B00D2588307DC0EFF23A3409A438B0794
:100FB0001B0E8407E40EA3401A43114B0407240FB1
:100FC000083CA408A4001A5118E00E4A03231B028F
:100FD000D21883089B00D2588307DC0EFF23A3405E
:100FE0009A438B071B0E8407E40EA3401A43054B5C
:100FF000032424021B198408A4001A5110BD000008
:101000001CED00E000E100E030B591B0302105A812
:10101000FFF7E2F800200190029003900490022074
:101020000590012008901020099002200D900021C9
:101030000E910521C9040F910021109105A8FFF719
:101040004FFC002801D0FFF7BEF9072001900220D5
:101050000290002003900490012101A8FFF70EFBED
:10106000002801D0FFF7AFF9FFF7D2FB05467D213D
:10107000C900FFF7B3F80446FFF7EAFE0420FFF7C4
:10108000D5FE11B030BD10B50446A18800222068FD
:10109000FFF794FA10BD10B50446A1882068FFF749
:1010A00089FA10BD10B504462089401C80B2208109
:1010B000E188884204DB002020812046FFF7EBFF17
:1010C00010BDF8B504460D4616461F462560A6809D
:1010D000E780002020812046FFF7D5FF2046F8BD9D
:1010E00010B53223082202490248FFF7EAFF10BD7B
:1010F0000004004808000020FFF774FAFFF784FF9F
:10110000FFF7C4FE00BFFEE7000000000000000083
:10111000010203040607080900000000010203049D
:101120004411000800000020080000000001000831
:101130004C11000808000020700600001C01000887
:0C114000A1FFFFFF0000000000127A0079
:04000005080000BD32
:00000001FF
